:20005F007500807501A17502917503AC7504DE7505887506B17507927508AD7509DF750AB0
:20007F0090750BB9750C93750DAE750E98750FC17510947511AF7512D37513D47514D5751D
:20009F0015D67516D77517A87518A97519AA751AAB751BB8751CF8751DA0751EC0751FB07E
:2000BF007520A47521A57522A67523A775248A7525C875268C75278B7528E8752987752A15
:2000DF00D8752B86752C8E752D8E752E8D752F897530897531967532B27533B37534B47557
:2000FF0035B47536BA7537BB7538BC7539BD753ABE753BBF753CC2753DC3753EC4753FC5A4
:20011F007540C67541C775428F75439775449C75459D75469E75479F7548F27549F3754AB4
:20013F00F4754BF5754CF6754DF7754EDC754FDD7550B57551B67552B77553E27554E37508
:20015F0055E47556E57557E67558E77559E9755AEA755BEB755CF1755DEC755EED755FEE04
:20017F007560EF7561FA7562FB7563FC7564FD7565FE7566E07567F07568D0756981756A06
:20019F0082756B83756C84756D85756EA2D200D201D202D203D204D205D206D207D208D2B2
:2001BF0009D20AD20BD20CD20DD20ED20FD210D211D212D213D214D215D216D217D218D2F8
:0D01DF0019D21AD21BD21CD21DD21ED21F63
:200CD700AD82AE83AFF074FB5559FC8D828E838FF012151625E025E04CF55974012DFAE4E5
:200CF7003EFB8F048A828B838CF0121516F55E74022DFDE43EFE8D828E838FF0121516F55A
:200D17005F8D828E838FF0121516A3121516FE8E6043594822C075858175AF82C0071210E5
:200D37005BAD82AE83D007EF2FF55DE55A30E22CC006C005E57524FAF8E6C0E008E6C0E00E
:200D57008D828E83121112AF8215811581D005D006BF010280D5758202020E28435901E555
:200D77005A20E02CC006C005E57524FAF8E6C0E008E6C0E08D828E83121112AF8215811596
:200D970081D005D006BF010280D5758202020E28E55A20E36EE57524FDF8865DE55A20E083
:200DB7002BC006C005E57524FAF8E6C0E008E6C0E08D828E83121112AF8215811581D0055B
:200DD700D006BF010280D57582028045E57524FCF8865DE55A20E030C006C005E57524FA8A
:200DF700F8E6C0E008E6C0E08D828E83121112AF8215811581D005D006BF010280D5758265
:200E170002800E7582048009435902535A07758201D07522C075858175AF82C00712105BD1
:200E3700AD82AE83D007EF2FFF7C004307018F5DE55A30E22CC006C005E57524F8F8E6C078
:200E5700E008E6C0E08D828E83121112AF8215811581D005D006BF010280D5758202020F8F
:200E770043435901E55A20E02CC006C005E57524F8F8E6C0E008E6C0E08D828E83121112AE
:200E9700AF8215811581D005D006BF010280D5758202020F43E55A30E303020F35E57524B6
:200EB700FDF8865DE55A20E02BC006C005E57524F8F8E6C0E008E6C0E08D828E8312111277
:200ED700AF8215811581D005D006BF010280D57582028058E55A20E62BC006C005E5752492
:200EF700F8F8E6C0E008E6C0E08D828E83121112AF8215811581D005D006BF010280D575EE
:200F170082028028E57524FAF886050886060886078D828E838FF0E55D1214FB80057582EC
:0F0F3700048009435902535A07758201D075226D
:2001EC007500807501A17502917503AC7504DE7505887506B17507927508AD7509DF750A22
:20020C0090750BB9750C93750DAE750E98750FC17510947511AF7512D37513D47514D5758E
:20022C0015D67516D77517A87518A97519AA751AAB751BB8751CF8751DA0751EC0751FB0EF
:20024C007520A47521A57522A67523A775248A7525C875268C75278B7528E8752987752A86
:20026C00D8752B86752C8E752D8E752E8D752F897530897531967532B27533B37534B475C8
:20028C0035B47536BA7537BB7538BC7539BD753ABE753BBF753CC2753DC3753EC4753FC515
:2002AC007540C67541C775428F75439775449C75459D75469E75479F7548F27549F3754A26
:2002CC00F4754BF5754CF6754DF7754EDC754FDD7550B57551B67552B77553E27554E3757A
:2002EC0055E47556E57557E67558E77559E9755AEA755BEB755CF1755DEC755EED755FEE76
:20030C007560EF7561FA7562FB7563FC7564FD7565FE7566E07567F07568D0756981756A77
:20032C0082756B83756C84756D85756EA2D200D201D202D203D204D205D206D207D208D223
:20034C0009D20AD20BD20CD20DD20ED20FD210D211D212D213D214D215D216D217D218D269
:0D036C0019D21AD21BD21CD21DD21ED21FD4
:0F0F460085822C752EE222AE2E4306208E2E229F
:200379007500807501A17502917503AC7504DE7505887506B17507927508AD7509DF750A93
:2003990090750BB9750C93750DAE750E98750FC17510947511AF7512D37513D47514D57500
:2003B90015D67516D77517A87518A97519AA751AAB751BB8751CF8751DA0751EC0751FB061
:2003D9007520A47521A57522A67523A775248A7525C875268C75278B7528E8752987752AF8
:2003F900D8752B86752C8E752D8E752E8D752F897530897531967532B27533B37534B4753A
:2004190035B47536BA7537BB7538BC7539BD753ABE753BBF753CC2753DC3753EC4753FC586
:200439007540C67541C775428F75439775449C75459D75469E75479F7548F27549F3754A97
:20045900F4754BF5754CF6754DF7754EDC754FDD7550B57551B67552B77553E27554E375EB
:2004790055E47556E57557E67558E77559E9755AEA755BEB755CF1755DEC755EED755FEEE7
:200499007560EF7561FA7562FB7563FC7564FD7565FE7566E07567F07568D0756981756AE9
:2004B90082756B83756C84756D85756EA2D200D201D202D203D204D205D206D207D208D295
:2004D90009D20AD20BD20CD20DD20ED20FD210D211D212D213D214D215D216D217D218D2DB
:0D04F90019D21AD21BD21CD21DD21ED21F46
:200F5500C075858175C082C083AF750F7E007D4074D0C0E07407C0E07401C0E0E4C0E08FB2
:200F7500828E838DF012122DAF82E58124FCF581BF010AA875088682088683800390FFFFB5
:060F9500857581D0752274
:03000000020006F5
:20050600E4F56FF5707500807501A17502917503AC7504DE7505887506B17507927508AD33
:200526007509DF750A90750BB9750C93750DAE750E98750FC17510947511AF7512D375133C
:20054600D47514D57515D67516D77517A87518A97519AA751AAB751BB8751CF8751DA0754D
:200566001EC0751FB07520A47521A57522A67523A775248A7525C875268C75278B7528E80B
:20058600752987752AD8752B86752C8E752D8E752E8D752F897530897531967532B275336C
:2005A600B37534B47535B47536BA7537BB7538BC7539BD753ABE753BBF753CC2753DC375EE
:2005C6003EC4753FC57540C67541C775428F75439775449C75459D75469E75479F7548F2FE
:2005E6007549F3754AF4754BF5754CF6754DF7754EDC754FDD7550B57551B67552B77553F0
:20060600E27554E37555E47556E57557E67558E77559E9755AEA755BEB755CF1755DEC7562
:200626005EED755FEE7560EF7561FA7562FB7563FC7564FD7565FE7566E07567F07568D08B
:20064600756981756A82756B83756C84756D85756EA2D200D201D202D203D204D205D2064D
:20066600D207D208D209D20AD20BD20CD20DD20ED20FD210D211D212D213D214D215D2166C
:12068600D217D218D219D21AD21BD21CD21DD21ED21F0D
:030CD40002000318
:03000300020F9B4E
:200F9B00C075E581F575240AF581E57504F8760CAF750FEF04F8760074022FF87403F62FE8
:200FBB00F8760053177FC007121042D0077E007D408F828E838DF01211A4E5752405FF7E1C
:200FDB00007D408F828E838DF0120CD71213EF12104AAE174306808E177401C0E0758201E5
:200FFB001214081581E4C0E075820512140815817401C0E075820412140815817401C0E0E5
:20101B0075820312140815819007D01210795354FB74FB55544404F5547582011214D0803C
:07103B00E7857581D07522E5
:200698007500807501A17502917503AC7504DE7505887506B17507927508AD7509DF750A71
:2006B80090750BB9750C93750DAE750E98750FC17510947511AF7512D37513D47514D575DE
:2006D80015D67516D77517A87518A97519AA751AAB751BB8751CF8751DA0751EC0751FB03F
:2006F8007520A47521A57522A67523A775248A7525C875268C75278B7528E8752987752AD6
:20071800D8752B86752C8E752D8E752E8D752F897530897531967532B27533B37534B47517
:2007380035B47536BA7537BB7538BC7539BD753ABE753BBF753CC2753DC3753EC4753FC564
:200758007540C67541C775428F75439775449C75459D75469E75479F7548F27549F3754A75
:20077800F4754BF5754CF6754DF7754EDC754FDD7550B57551B67552B77553E27554E375C9
:2007980055E47556E57557E67558E77559E9755AEA755BEB755CF1755DEC755EED755FEEC5
:2007B8007560EF7561FA7562FB7563FC7564FD7565FE7566E07567F07568D0756981756AC7
:2007D80082756B83756C84756D85756EA2D200D201D202D203D204D205D206D207D208D273
:2007F80009D20AD20BD20CD20DD20ED20FD210D211D212D213D214D215D216D217D218D2B9
:0D08180019D21AD21BD21CD21DD21ED21F23
:08104200752520752400002231
:20082500E4F572F5737500807501A17502917503AC7504DE7505887506B17507927508AD0B
:200845007509DF750A90750BB9750C93750DAE750E98750FC17510947511AF7512D375131A
:20086500D47514D57515D67516D77517A87518A97519AA751AAB751BB8751CF8751DA0752B
:200885001EC0751FB07520A47521A57522A67523A775248A7525C875268C75278B7528E8E9
:2008A500752987752AD8752B86752C8E752D8E752E8D752F897530897531967532B275334A
:2008C500B37534B47535B47536BA7537BB7538BC7539BD753ABE753BBF753CC2753DC375CC
:2008E5003EC4753FC57540C67541C775428F75439775449C75459D75469E75479F7548F2DC
:200905007549F3754AF4754BF5754CF6754DF7754EDC754FDD7550B57551B67552B77553CD
:20092500E27554E37555E47556E57557E67558E77559E9755AEA755BEB755CF1755DEC7540
:200945005EED755FEE7560EF7561FA7562FB7563FC7564FD7565FE7566E07567F07568D069
:20096500756981756A82756B83756C84756D85756EA2D200D201D202D203D204D205D2062B
:20098500D207D208D209D20AD20BD20CD20DD20ED20FD210D211D212D213D214D215D2164A
:1209A500D217D218D219D21AD21BD21CD21DD21ED21FEB
:20104A0075270043272AAE1A53060F4306108E1A2285728285738322C0E0C0D074012572B1
:20106A00F572E43573F573432708D0D0D0E032C07585817505810581AE82AF83C007C0066C
:20108A0012105BAC82AD83D006D007EE2CFAEF3DFBC3EC9AED9B501EA87508EE2CF6EF3DE3
:2010AA0008F612105BAA82AB83A87508C3EA96EB0896504E80EC74FFC39CFA74FF9DFBEE91
:2010CA00C39AFEEF9BFFC007C006C005C00412105BAA82AB83D004D005D006D007C3EA9E94
:2010EA00EB9F40E2C007C006C005C00412105BAA82AB83D004D005D006D007C3EC9AED9B26
:20110A0040C4857581D07522C075858175C082C083A87508E57524FCF9E726FC09E70836DB
:20112A00FDA87508C3E69C08E69D502612105BAC82AD83A87508E57524FCF9E726FA09E7D3
:20114A000836FBC3EC9AED9B50047D0180447D02804012105BAB82AC83A8750874FFC396DC
:20116A00FA74FF0896FFE57524FCF8E6C39AFA08E69FFFC3EB9AEC9F401212105BAE82AF9F
:1A118A0083A87508C3E69E08E69F50047D0180027D028D82857581D075220B
:2009B7007574007500807501A17502917503AC7504DE7505887506B17507927508AD7509C4
:2009D700DF750A90750BB9750C93750DAE750E98750FC17510947511AF7512D37513D475BC
:2009F70014D57515D67516D77517A87518A97519AA751AAB751BB8751CF8751DA0751EC003
:200A1700751FB07520A47521A57522A67523A775248A7525C875268C75278B7528E8752995
:200A370087752AD8752B86752C8E752D8E752E8D752F897530897531967532B27533B3752C
:200A570034B47535B47536BA7537BB7538BC7539BD753ABE753BBF753CC2753DC3753EC45E
:200A7700753FC57540C67541C775428F75439775449C75459D75469E75479F7548F275498C
:200A9700F3754AF4754BF5754CF6754DF7754EDC754FDD7550B57551B67552B77553E275A1
:200AB70054E37555E47556E57557E67558E77559E9755AEA755BEB755CF1755DEC755EEDB9
:200AD700755FEE7560EF7561FA7562FB7563FC7564FD7565FE7566E07567F07568D0756943
:200AF70081756A82756B83756C84756D85756EA2D200D201D202D203D204D205D206D2079D
:200B1700D208D209D20AD20BD20CD20DD20ED20FD210D211D212D213D214D215D216D217A6
:100B3700D218D219D21AD21BD21CD21DD21ED21F42
:2011A400AD82AE83AFF0121516F557AB5353030F7C0074012DF8E43EF98F02888289838ADE
:2011C400F0121516C454F07A004203EA42048B53AB535303F07C0074022DF8E43EF98F0202
:2011E400888289838AF012151625E07A004203EA42048B53AB555303F47C0074032DFDE401
:201204003EFE8D828E838FF01215167F004203EF42048B55AE545306D143062E8E54AE188E
:201224005306F74306088E1822C075858175C082C083C0F00581058112105BAB82AC83E592
:20124400752404F8E4F608F6E57524FCF886050886068D028E071DBDFF011EEA4F700302C2
:201264001303C006C005C004C003E57524FAF8E6C0E008E6C0E08B828C83121112AF821527
:20128400811581D003D004D005D006BF016CE55620E733C006C005C004C003E57524FAF8BE
:2012A400E6C0E008E6C0E08B828C83121112AF8215811581D003D004D005D006BF010280D4
:2012C400CD758202803CC005C006A87508E5752404F9E726FA09E70836FE0886078A828EFB
:2012E400838FF0121516F558E5752404F806B600020806D006D00502125675820280037512
:201304008201857581D07522C075858175C082C083C0F00581058112105BAB82AC83E57540
:201324002404F8E4F608F6E57524FCF886050886068D028E071DBDFF011EEA4F7003021343
:20134400E2C006C005C004C003E57524FAF8E6C0E008E6C0E08B828C83121112AF821581F9
:201364001581D003D004D005D006BF016CE55620E533C006C005C004C003E57524FAF8E67A
:20138400C0E008E6C0E08B828C83121112AF8215811581D003D004D005D006BF010280CD0C
:2013A400758202803CC005C006A87508E5752404F9E726FA09E70836FE0886078A828E8364
:2013C4008FF0E5581214FBE5752404F806B600020806D006D005021335758202800375827E
:0B13E40001857581D075228558743298
:200B47007500807501A17502917503AC7504DE7505887506B17507927508AD7509DF750ABD
:200B670090750BB9750C93750DAE750E98750FC17510947511AF7512D37513D47514D5752A
:200B870015D67516D77517A87518A97519AA751AAB751BB8751CF8751DA0751EC0751FB08B
:200BA7007520A47521A57522A67523A775248A7525C875268C75278B7528E8752987752A22
:200BC700D8752B86752C8E752D8E752E8D752F897530897531967532B27533B37534B47564
:200BE70035B47536BA7537BB7538BC7539BD753ABE753BBF753CC2753DC3753EC4753FC5B1
:200C07007540C67541C775428F75439775449C75459D75469E75479F7548F27549F3754AC1
:200C2700F4754BF5754CF6754DF7754EDC754FDD7550B57551B67552B77553E27554E37515
:200C470055E47556E57557E67558E77559E9755AEA755BEB755CF1755DEC755EED755FEE11
:200C67007560EF7561FA7562FB7563FC7564FD7565FE7566E07567F07568D0756981756A13
:200C870082756B83756C84756D85756EA2D200D201D202D203D204D205D206D207D208D2BF
:200CA70009D20AD20BD20CD20DD20ED20FD210D211D212D213D214D215D216D217D218D205
:0D0CC70019D21AD21BD21CD21DD21ED21F70
:2013EF00750100750300751218750610751428751503750FF975160122C075858175E58246
:20140F00FF24FA5003021487EF2F90141D73800A80188026803480428050E57524FDF8E6F7
:20142F007004C21B8052D21B804EE57524FDF8E67004C21C8042D21C803EE57524FDF8E64D
:20144F007004C21D8032D21D802EE57524FDF8E67004C21E8022D21E801EE57524FDF8E6A5
:20146F007004C21F8012D21F800EE57524FDF8E67004C20C8002D20CD07522AF827E00EFF7
:20148F0024FA403AEF2F90149973800A800F80148019801E8023A21BE433FE8021A21CE43B
:2014AF0033FE801AA21DE433FE8013A21EE433FE800CA21FE433FE8005A20CE433FE8E825C
:2014CF0022E582FF24FA4023EF2F9014DD73800A800B800C800D800E800FB21B22B21C22B8
:0C14EF00B21D22B21E22B21F22B20C223B
:06003500E478FFF6D8FD9F
:200013007900E94400601B7A00901536780175A000E493F2A308B8000205A0D9F4DAF27548
:02003300A0FF2C
:1B14FB0020F71130F6138883A88220F509F6A8837583002280FEF280F5F022F0
:20003B007800E84400600A790175A000E4F309D8FC7800E84400600C7900900001E4F0A3C3
:04005B00D8FCD9FAFA
:0D000600758175121532E58260030200035A
:1C15160020F71430F6148883A88220F507E6A88375830022E280F7E49322E022E4
:04153200758200229C
:00000001FF
