:10006200AFF0AE83E582900100F0EEA3F0EFA3F0D3
:1000720074FB55E9FF900100E0FCA3E0FDA3E0FE64
:100082008C828D838EF01208EE25E025E04FF5E993
:1000920074012CFAE43DFB8E078A828B838FF01267
:1000A20008EEF5ED74022CFCE43DFD8C828D838E0E
:1000B200F01208EEF5EE8C828D838EF01208EEA31C
:1000C2001208EEFD8DEF43E94822E582900107F028
:1000D2001203EFAE82AF83900107E025E0F5EC90CA
:1000E2000105E0FCA3E0FDE5EA30E22A90011FEC05
:1000F200F0EDA3F08E828F83C007C006C005C00456
:100102001204BFAB82D004D005D006D007BB0102D7
:1001120080D57582022243E9018C028D03E5EA2033
:10012200E03290011FEAF0EBA3F08E828F83C007CA
:10013200C006C005C004C003C0021204BFA982D019
:1001420002D003D004D005D006D007B9010280CD79
:1001520075820222E5EA20E376900103E0F5EC8C59
:10016200028D03E5EA20E03290011FEAF0EBA3F0F2
:100172008E828F83C007C006C005C004C003C002C0
:100182001204BFA982D002D003D004D005D006D079
:1001920007B9010280CD75820222900104E0F5ECDC
:1001A200E5EA20E02E90011FECF0EDA3F08E828FA5
:1001B20083C007C006C005C0041204BFAB82D004CE
:1001C200D005D006D007BB010280D5758202227508
:1001D20082042243E90253EA0775820122E58290F2
:1001E200010EF01203EFAE82AF8390010EE025E024
:1001F200FD74014DF5EC90010CE0FCA3E0FDE5EA95
:1002020030E22A90011FECF0EDA3F08E828F83C0C2
:1002120007C006C005C0041204BFAB82D004D005DB
:10022200D006D007BB010280D57582022243E901C4
:100232008C028D03E5EA20E03290011FEAF0EBA385
:10024200F08E828F83C007C006C005C004C003C001
:10025200021204BFA982D002D003D004D005D00676
:10026200D007B9010280CD75820222E5EA30E303AC
:100272000202FD900108E0F5EC8C028D03E5EA2014
:10028200E03290011FEAF0EBA3F08E828F83C00769
:10029200C006C005C004C003C0021204BFA982D0B8
:1002A20002D003D004D005D006D007B9010280CD18
:1002B20075820222E5EA20E62A90011FECF0EDA306
:1002C200F08E828F83C007C006C005C0041204BF2F
:1002D200AB82D004D005D006D007BB010280D57511
:1002E200820222900109E0FDA3E0FEA3E0FF8D82DD
:1002F2008E838FF0E5EC1208D380047582042243CA
:10030200E90253EA0775820122E58290010FF0E0CB
:10031200F58E758DE222438D2022AF83E582900116
:1003220010F0EFA3F09001277401F0E4A3F0900124
:100332002974D0F07407A3F090011075F000120533
:10034200FCAF82BF010D900110E0FEA3E0FF8E82A0
:070352008F832290FFFF22C0
:03000000020006F5
:03005F0002000399
:030003000203599C
:10035900900113740CF0900114E4F09001157403EA
:10036900F0900116E4F053A87F1203D89001137599
:10037900F00012057490011775F00012006212075F
:10038900BD1203E043A8809001357401F075820124
:100399001207D6900135E4F07582051207D690014F
:1003A900357401F07582041207D69001357401F095
:1003B9007582031207D69007D012042D53E3FB74FC
:0F03C900FB55E34404F5E37582011208A380E7B6
:02090E000000E7
:1003D80075C820758A000022758B00438B2AE5AB0F
:1003E800540F4410F5AB2290013DE0FEA3E08E824D
:1003F800F58322C0E0C082C083C007C006C0D075A4
:10040800D00090013DE0FEA3E0FF90013D74012E75
:10041800F0E43FA3F0438B08D0D0D006D007D083B8
:10042800D082D0E032AF83E58290011DF0EFA3F0D7
:100438001203EFAE82AF8390011DE0FCA3E0FDEC58
:100448002EFAED3FFBC3EE9AEF9B501EEC2EFAED11
:100458003FFBC003C0021203EFA882A983D002D0D9
:1004680003C3E89AE99B504E80E874FFC39EFA7470
:10047800FF9FFBECC39AFCED9BFDC007C006C005BF
:10048800C0041203EFAA82AB83D004D005D006D0F3
:1004980007C3EA9CEB9D40E2C007C006C005C00444
:1004A8001203EFAA82AB83D004D005D006D007C3CD
:1004B800EE9AEF9B40C422AF83E582900121F0EFD2
:1004C800A3F090011FE0FEA3E0FF900121E0FCA350
:1004D800E0FDEE2CFAEF3DFBC3EC9AED9B5034C0E7
:1004E80007C006C005C0041203EFAA82AB83D0047C
:1004F800D005D006D007EE2CF8EF3DF9C3EA98EB0B
:100508009950089001237401F0805A9001237402D5
:10051800F08052C007C006C005C0041203EFAA82CB
:10052800AB83D004D005D006D00774FFC39CF87401
:10053800FF9DF9EEC398FEEF99FFC3EA9EEB9F403B
:1005480016C005C0041203EFAE82AF83D004D005F5
:10055800C3EC9EED9F50089001237401F080069033
:0C05680001237402F0900123E0F58222D0
:020910000000E5
:10057400AFF0AE83E582900124F0EEA3F0EFA3F098
:10058400900124E0FDA3E0FEA3E0FF8D828E838F23
:10059400F01208EEF5E6E5E2540FFC74012DF9E4DF
:1005A4003EFA8F0389828A838BF01208EEC454F0DA
:1005B4004CF5E2E5E254F0FC74022DF9E43EFA8FC6
:1005C4000389828A838BF01208EE25E04CF5E2E57C
:1005D400E454F4FC74032DFDE43EFE8D828E838F7F
:1005E400F01208EE4CF5E4E5E354D1442EF5E3E5CE
:1005F400A954F74408F5A922AFF0AE83E58290012F
:100604002BF0EEA3F0EFA3F01203EFAE82AF8390D2
:10061400012BE0F532A3E0F533A3E0F53479007A59
:1006240000900127E0F530A3E0F531A830AD311595
:100634003074FFB530021531E84D70030206CF90D7
:100644000129E0FCA3E0FD90011FECF0EDA3F08E86
:10065400828F83C007C006C005C004C002C0011257
:1006640004BFAB82D001D002D004D005D006D0079D
:10067400BB0154E5E520E73290011FECF0EDA3F057
:100684008E828F83C007C006C005C004C002C001AB
:100694001204BFAB82D001D002D004D005D006D062
:1006A40007BB010280CD75820222E92532FBEA35BF
:1006B40033FCAD348B828C838DF01208EEF5E709A0
:1006C400B900010A02062F7582022275820122AF47
:1006D400F0AE83E582900132F0EEA3F0EFA3F012C6
:1006E40003EFAE82AF83900132E0F537A3E0F53833
:1006F400A3E0F53979007A0090012EE0F535A3E006
:10070400F536A835AD36153574FFB535021536E81E
:100714004D70030207A6900130E0FCA3E0FD9001B8
:100724001FECF0EDA3F08E828F83C007C006C005D6
:10073400C004C002C0011204BFAB82D001D002D0F9
:1007440004D005D006D007BB0154E5E520E532907E
:10075400011FECF0EDA3F08E828F83C007C006C0AA
:1007640005C004C002C0011204BFAB82D001D00294
:10077400D004D005D006D007BB010280CD7582021B
:1007840022E92537FBEA3538FCAD398B828C838D21
:10079400F0E5E71208D309B900010A0207067582D9
:1007A400022275820122C0E0C082C08390013FE52D
:0907B400E7F0D083D082D0E032DE
:0109120000E4
:1007BD0075A10075AC0075D31875B11075D5287578
:1007CD00D60375C1F975D70122E582900136F0E0A7
:1007DD00FF24FA4059EF2F9007E873800A801480A8
:1007ED001E80288032803C900135E07003C29B2230
:1007FD00D29B22900135E07003C29C22D29C2290A4
:10080D000135E07003C29D22D29D22900135E0702A
:10081D0003C29E22D29E22900135E07003C29F2218
:10082D00D29F22900135E07003C28C22D28C22E53A
:10083D0082900137F0900138E4F0900137E0FF2409
:10084D00FA404CEF2F90085673800A8012801A8060
:10085D0022802A8032900138A29BE433F0803090C0
:10086D000138A29CE433F08026900138A29DE43338
:10087D00F0801C900138A29EE433F0801290013874
:10088D00A29FE433F08008900138A28CE433F090FD
:10089D000138E0F58222E582900139F0E0FF24FA7B
:1008AD004023EF2F9008B573800A800B800C800DCC
:1008BD00800E800FB29B22B29C22B29D22B29E224C
:0608CD00B29F22B28C2252
:06003500E478FFF6D8FD9F
:100013007905E94400601B7A0190090E783B75A0CD
:1000230001E493F2A308B8000205A0D9F4DAF2754B
:02003300A0FF2C
:1008D30020F71130F6138883A88220F509F6A88340
:0B08E3007583002280FEF280F5F022F9
:10003B007800E84400600A790075A001E4F309D860
:10004B00FC783BE84400600C7901900100E4F0A3DC
:04005B00D8FCD9FAFA
:0D00060075817F12090AE582600302000384
:1008EE0020F71430F6148883A88220F507E6A88333
:1008FE0075830022E280F7E49322E02275820022C3
:00000001FF
